:100000000C942A000C9447000C9447000C94470071
:100010000C9447000C9447000C9447000C94470044
:100020000C9447000C9447000C9447000C94470034
:100030000C9447000C9447000C9447000C94470024
:100040000C9447000C9447000C9447000C94470014
:100050000C94470011241FBECFE5D8E0DEBFCDBF12
:1000600010E0A0E6B0E0E8ECFDE002C005900D92E3
:10007000AC37B107D9F720E0ACE7B0E001C01D9282
:10008000AF37B207E1F70E9467030C94E2060C94C5
:100090000000823419F118F4813439F00895833462
:1000A000B1F1843409F44CC00895413059F42AB3B5
:1000B00081E090E002C0880F991F6A95E2F7822BD9
:1000C0008ABB08952AB381E090E002C0880F991F8F
:1000D0006A95E2F7809582238ABB0895413059F4EE
:1000E00027B381E090E002C0880F991F6A95E2F77C
:1000F000822B87BB089527B381E090E002C0880F70
:10010000991F6A95E2F78095822387BB0895413055
:1001100059F424B381E090E002C0880F991F6A95DA
:10012000E2F7822B84BB089524B381E090E002C003
:10013000880F991F6A95E2F78095822384BB089502
:10014000413059F421B381E090E002C0880F991F3B
:100150006A95E2F7822B81BB089521B381E090E09C
:1001600002C0880F991F6A95E2F78095822381BBB0
:100170000895823419F118F4813439F008958334E4
:10018000B1F1843409F44CC00895413059F42BB3D3
:1001900081E090E002C0880F991F6A95E2F7822BF8
:1001A0008BBB08952BB381E090E002C0880F991FAC
:1001B0006A95E2F7809582238BBB0895413059F40C
:1001C00028B381E090E002C0880F991F6A95E2F79A
:1001D000822B88BB089528B381E090E002C0880F8D
:1001E000991F6A95E2F78095822388BB0895413074
:1001F00059F425B381E090E002C0880F991F6A95F9
:10020000E2F7822B85BB089525B381E090E002C020
:10021000880F991F6A95E2F78095822385BB089520
:10022000413059F422B381E090E002C0880F991F59
:100230006A95E2F7822B82BB089522B381E090E0B9
:1002400002C0880F991F6A95E2F78095822382BBCE
:1002500008958234E9F018F4813431F055C08334C4
:1002600059F18434E9F150C049B381E090E09C0138
:10027000062E02C0220F331F0A94E2F7842F90E06B
:100280008223932302C0959587956A95E2F7089596
:1002900046B381E090E09C01062E02C0220F331F7E
:1002A0000A94E2F7842F90E08223932302C095956D
:1002B00087956A95E2F7089543B381E090E09C0149
:1002C000062E02C0220F331F0A94E2F7842F90E01B
:1002D0008223932302C0959587956A95E2F7089546
:1002E00040B381E090E09C01062E02C0220F331F34
:1002F0000A94E2F7842F90E08223932302C095951D
:1003000087956A95E2F7089580E00895823459F060
:1003100018F4813431F00895833439F0843439F09D
:1003200008956BBB089568BB089565BB089562BBD3
:100330000895823419F118F4813439F00895833422
:10034000B1F1843409F44CC00895413059F42BB311
:1003500081E090E002C0880F991F6A95E2F7822B36
:100360008BBB08952BB381E090E002C0880F991FEA
:100370006A95E2F7809582238BBB0895413059F44A
:1003800028B381E090E002C0880F991F6A95E2F7D8
:10039000822B88BB089528B381E090E002C0880FCB
:1003A000991F6A95E2F78095822388BB08954130B2
:1003B00059F425B381E090E002C0880F991F6A9537
:1003C000E2F7822B85BB089525B381E090E002C05F
:1003D000880F991F6A95E2F78095822385BB08955F
:1003E000413059F422B381E090E002C0880F991F98
:1003F0006A95E2F7822B82BB089522B381E090E0F8
:1004000002C0880F991F6A95E2F78095822382BB0C
:10041000089541E060E084E40E94490041E061E029
:1004200084E40E94490041E062E084E40E944900C3
:1004300041E063E084E40E94490040E064E084E439
:100440000E94490040E065E084E40E94490040E0E9
:1004500066E084E40E94490040E067E084E40E9492
:10046000490041E064E084E40E94990141E065E0D4
:1004700084E40E94990141E066E084E40E949901CD
:1004800041E067E084E40E9499010895EF92FF92B1
:100490000F931F93CF93DF93CDB7DEB760970FB65F
:1004A000F894DEBF0FBECDBF80E1E6E6F0E0DE01EE
:1004B000119601900D928A95E1F7EE24EA94F12CC1
:1004C00039C041E060E084E40E94B90041E061E0AD
:1004D00084E40E94B90041E062E084E40E94B90033
:1004E00041E063E084E40E94B90040E06F2D84E4C1
:1004F0000E94B90010E019C064E0610F84E40E941A
:100500002901082F811110C0EF2DF0E0EE0FFF1F21
:10051000EE0FFF1F81E090E08C0F9D1FE80FF91F89
:10052000E10FF11DE08003C01F5F143028F30023AA
:1005300021F0F39493E09F1520F68E2D60960FB670
:10054000F894DEBF0FBECDBFDF91CF911F910F9109
:10055000FF90EF90089541E060E082E40E94B900CE
:100560008FE99FE00197F1F700C0000040E060E0F4
:1005700082E40E94B9008FE99FE00197F1F700C083
:1005800000000895682F81E40E94860140E061E048
:1005900082E40E94B9000E94AB028FEC97E00197C1
:1005A000F1F700C0000008952FEF81EE94E0215094
:1005B00080409040E1F700C0000041E060E081E44D
:1005C0000E94490041E061E081E40E94490041E06D
:1005D00062E081E40E94490041E063E081E40E941E
:1005E000490041E064E081E40E94490041E065E0A7
:1005F00081E40E94490041E066E081E40E944900F4
:1006000041E067E081E40E94490041E060E082E46B
:100610000E94490041E062E082E40E94490041E01A
:1006200061E082E40E94490040E062E082E40E94CE
:10063000B90088E30E94C2028FEC97E00197F1F7BE
:1006400000C000008EE00E94C2028FEC97E001978C
:10065000F1F700C0000081E00E94C2028FE19EE439
:100660000197F1F700C0000086E00E94C2028FEC03
:1006700097E00197F1F700C000000895682F81E42A
:100680000E94860141E061E082E40E94B9000E947C
:10069000AB028FEC97E00197F1F700C000000895DE
:1006A000CF93DF93EC0103C00E943E032196888123
:1006B0008111FACFDF91CF91089581E00E94C202AB
:1006C0008FE19EE40197F1F700C0000008950E94B9
:1006D000D4020E9409020E945D03C0917C00D0E018
:1006E0000E944602C05ADF4F8883E0917C00F0E010
:1006F000E05AFF4F80818F3F81F32FEF82E597E033
:10070000215080409040E1F700C00000E0917C0063
:10071000F0E0E05AFF4F8081813451F08B3241F09C
:100720008D3231F08A3221F08F3211F08D3381F425
:100730000E945D0386E790E00E9450032FEF83ED57
:1007400090E3215080409040E1F700C00000BFCF0F
:100750000E943E0380917C008F5F80937C00C0915B
:100760007C00D0E00E944602C05ADF4F8883E091AF
:100770007C00F0E0E05AFF4F80818F3F81F32FEF44
:1007800082E597E0215080409040E1F700C00000F2
:10079000E0917C00F0E0E05AFF4F8081813451F01D
:1007A0008B3241F08D3231F08A3221F08F3211F0EC
:1007B0008D3381F40E945D0386E790E00E94500330
:1007C0002FEF83ED90E3215080409040E1F700C08F
:1007D00000007DCF0E943E0380917C008F5F80935C
:1007E0007C00C0917C00D0E00E944602C05ADF4FDE
:1007F0008883E0917C00F0E0E05AFF4F80818F3FDA
:1008000081F32FEF82E597E0215080409040E1F79F
:1008100000C00000E0917C00F0E0E05AFF4F8081D2
:100820008B3231F08D3221F08A3211F08F3241F467
:100830000E943E0380917C008F5F80937C0010C0FB
:100840000E945D0386E790E00E9450032FEF83ED46
:1008500090E3215080409040E1F700C0000037CF86
:10086000C0917C00D0E00E944602C05ADF4F8883CE
:10087000E0917C00F0E0E05AFF4F80818F3F81F3F0
:100880002FEF82E597E0215080409040E1F700C0D3
:100890000000E0917C00F0E0E05AFF4F808181345D
:1008A00051F08B3241F08D3231F08A3221F08F32AB
:1008B00011F08D3381F40E945D0386E790E00E9481
:1008C00050032FEF83ED90E3215080409040E1F7FB
:1008D00000C00000FCCE0E943E0380917C008F5F30
:1008E00080937C00C0917C00D0E00E944602C05AF8
:1008F000DF4F8883E0917C00F0E0E05AFF4F808179
:100900008F3F81F32FEF82E597E0215080409040A8
:10091000E1F700C00000E0917C00F0E0E05AFF4FFA
:100920008081813451F08B3241F08D3231F08A3246
:1009300021F08F3211F08D3381F40E945D0386E740
:1009400090E00E9450032FEF83ED90E32150804010
:100950009040E1F700C00000BACE0E943E038091B3
:100960007C008F5F80937C00C0917C00D0E00E946F
:100970004602C05ADF4F8883E0917C00F0E0E05AE5
:10098000FF4F80818F3F81F32FEF82E597E0215069
:1009900080409040E1F700C00000E0917C00F0E072
:1009A000E05AFF4F80818D33B9F40E943E032091BD
:1009B0007C0030E0F901E35AFF4F80818B32E1F097
:1009C00020F48A3209F4F3C086CE8D3209F485C052
:1009D0008F3209F45FC17FCE0E945D0386E790E00D
:1009E0000E9450032FEF83ED90E321508040904010
:1009F000E1F700C000006BCEF901E55AFF4F80819E
:100A000090E0C097AC01440F551F880F991F880FC5
:100A1000991F880F991F840F951FF901E45AFF4F02
:100A2000608170E060537109680F791FF901E25A23
:100A3000FF4F408150E0CA01C097FC01EE0FFF1F3D
:100A4000AC01440F551F440F551F440F551FCF01D4
:100A5000840F951F860F971FF901E15AFF4F2081E0
:100A600030E020533109820F931F90937E008093D2
:100A70007D008A3091056CF4805D0E943E032FEF6B
:100A800083ED90E3215080409040E1F700C00000EA
:100A900022CE9C012B5031092935310508F01BCE9F
:100AA000CAE0D0E0BE010E94BA0680E3860F0E9431
:100AB0003E0380917D0090917E00BE010E94BA06A7
:100AC000805D0E943E032FEF83ED90E32150804034
:100AD0009040E1F700C00000FECDF901E55AFF4F5C
:100AE000808190E0C097AC01440F551F880F991F7B
:100AF000880F991F880F991F840F951FF901E45AD9
:100B0000FF4F408150E040535109840F951FF90178
:100B1000E25AFF4F608170E06053710916EF1603CF
:100B2000A001179F500D1124840F951FF901E15A60
:100B3000FF4F208130E020533109821B930B9093AB
:100B40007E0080937D008A3091056CF4805D0E9468
:100B50003E032FEF83ED90E3215080409040E1F77A
:100B600000C00000B8CD9C012B503109293531055A
:100B700008F0B1CDCAE0D0E0BE010E94BA0680E321
:100B8000860F0E943E0380917D0090917E00BE0101
:100B90000E94BA06805D0E943E032FEF83ED90E332
:100BA000215080409040E1F700C0000094CDF90151
:100BB000E55AFF4F808190E0C097AC01440F551F6C
:100BC000880F991F880F991F880F991F840F951FF1
:100BD000F901E45AFF4F408150E040535109480F5A
:100BE000591FF901E25AFF4F808190E0C097BC0184
:100BF000660F771F880F991F880F991F880F991FFD
:100C0000860F971FF901E15AFF4F208130E02053F2
:100C10003109280F391F429FC001439F900D529FF9
:100C2000900D112490937E0080937D008A30910571
:100C30006CF4805D0E943E032FEF83ED90E3215022
:100C400080409040E1F700C0000045CD9C012B5052
:100C500031092935310508F03ECDCAE0D0E0BE01AA
:100C60000E94BA0680E3860F0E943E0380917D00B9
:100C700090917E00BE010E94BA06805D0E943E03F4
:100C80002FEF83ED90E3215080409040E1F700C0CA
:100C9000000021CDF901E55AFF4F808190E0C09717
:100CA000AC01440F551F880F991F880F991F880F9B
:100CB000991F840F951FF901E45AFF4F408150E0BE
:100CC00040535109840F951FF901E25AFF4F4081AB
:100CD00050E040535109BA01660F771F440F551F6A
:100CE000440F551F440F551F460F571FF901E15A76
:100CF000FF4F608170E060537109640F751F0E949F
:100D0000BA06CB0170937E0060937D006A30710556
:100D100074F480E3860F0E943E032FEF83ED90E38F
:100D2000215080409040E1F700C00000D4CC6B50CF
:100D300071096935710508F0CECCCAE0D0E0BE017A
:100D40000E94BA0680E3860F0E943E0380917D00D8
:100D500090917E00BE010E94BA06805D0E943E0313
:100D60002FEF83ED90E3215080409040E1F700C0E9
:100D70000000B1CC97FB072E16F4009407D077FD46
:100D800009D00E94CE0607FC05D03EF490958195CF
:100D90009F4F0895709561957F4F0895AA1BBB1BC7
:100DA00051E107C0AA1FBB1FA617B70710F0A61B6B
:100DB000B70B881F991F5A95A9F780959095BC018C
:080DC000CD010895F894FFCF66
:100DC800FFFFFFFFFFFF3738392F3435362A31321E
:0C0DD800332D41303D2B6572726F7200AC
:00000001FF
